{
  "contractName": "Prescurity",
  "abi": [
    {
      "inputs": [],
      "payable": false,
      "stateMutability": "nonpayable",
      "type": "constructor"
    },
    {
      "anonymous": false,
      "inputs": [
        {
          "components": [
            {
              "internalType": "uint256",
              "name": "numero_secu",
              "type": "uint256"
            },
            {
              "internalType": "address",
              "name": "patient_address",
              "type": "address"
            },
            {
              "internalType": "uint256[]",
              "name": "prescriptions_ids",
              "type": "uint256[]"
            },
            {
              "internalType": "bool",
              "name": "isValue",
              "type": "bool"
            }
          ],
          "indexed": false,
          "internalType": "struct Prescurity.Patient",
          "name": "patient",
          "type": "tuple"
        },
        {
          "components": [
            {
              "internalType": "uint256",
              "name": "id",
              "type": "uint256"
            },
            {
              "internalType": "string",
              "name": "speciality",
              "type": "string"
            },
            {
              "internalType": "string",
              "name": "name",
              "type": "string"
            },
            {
              "internalType": "address",
              "name": "doctor_address",
              "type": "address"
            },
            {
              "internalType": "bool",
              "name": "isValue",
              "type": "bool"
            }
          ],
          "indexed": false,
          "internalType": "struct Prescurity.Doctor",
          "name": "doctor",
          "type": "tuple"
        },
        {
          "indexed": false,
          "internalType": "uint256",
          "name": "amount",
          "type": "uint256"
        }
      ],
      "name": "Consultation",
      "type": "event"
    },
    {
      "constant": false,
      "inputs": [
        {
          "internalType": "address",
          "name": "addr",
          "type": "address"
        },
        {
          "internalType": "uint256",
          "name": "id",
          "type": "uint256"
        },
        {
          "internalType": "string",
          "name": "name",
          "type": "string"
        },
        {
          "internalType": "string",
          "name": "speciality",
          "type": "string"
        }
      ],
      "name": "add_doctor",
      "outputs": [],
      "payable": false,
      "stateMutability": "nonpayable",
      "type": "function"
    },
    {
      "constant": false,
      "inputs": [
        {
          "internalType": "address",
          "name": "addr",
          "type": "address"
        },
        {
          "internalType": "uint256",
          "name": "id",
          "type": "uint256"
        },
        {
          "internalType": "string",
          "name": "name",
          "type": "string"
        }
      ],
      "name": "add_pharmacy",
      "outputs": [],
      "payable": false,
      "stateMutability": "nonpayable",
      "type": "function"
    }
  ],
  "bytecode": "0x608060405234801561001057600080fd5b50336000806101000a81548173ffffffffffffffffffffffffffffffffffffffff021916908373ffffffffffffffffffffffffffffffffffffffff160217905550610adb806100606000396000f3fe608060405234801561001057600080fd5b50600436106100365760003560e01c80632401c0b61461003b5780639bd560f614610057575b600080fd5b6100556004803603610050919081019061080a565b610073565b005b610071600480360361006c9190810190610876565b610388565b005b60048081111561007f57fe5b600a60003373ffffffffffffffffffffffffffffffffffffffff1673ffffffffffffffffffffffffffffffffffffffff16815260200190815260200160002060009054906101000a900460ff1660048111156100d757fe5b141561034757600760008573ffffffffffffffffffffffffffffffffffffffff1673ffffffffffffffffffffffffffffffffffffffff16815260200190815260200160002060020160149054906101000a900460ff1661016c576040517f08c379a0000000000000000000000000000000000000000000000000000000008152600401610163906109fd565b60405180910390fd5b82600760008673ffffffffffffffffffffffffffffffffffffffff1673ffffffffffffffffffffffffffffffffffffffff168152602001908152602001600020600001819055508181600760008773ffffffffffffffffffffffffffffffffffffffff1673ffffffffffffffffffffffffffffffffffffffff16815260200190815260200160002060010191906102049291906106f1565b5083600760008673ffffffffffffffffffffffffffffffffffffffff1673ffffffffffffffffffffffffffffffffffffffff16815260200190815260200160002060020160006101000a81548173ffffffffffffffffffffffffffffffffffffffff021916908373ffffffffffffffffffffffffffffffffffffffff1602179055506001600760008673ffffffffffffffffffffffffffffffffffffffff1673ffffffffffffffffffffffffffffffffffffffff16815260200190815260200160002060020160146101000a81548160ff0219169083151502179055506003600860008673ffffffffffffffffffffffffffffffffffffffff1673ffffffffffffffffffffffffffffffffffffffff16815260200190815260200160002060006101000a81548160ff0219169083600481111561033d57fe5b0217905550610382565b6040517f08c379a0000000000000000000000000000000000000000000000000000000008152600401610379906109dd565b60405180910390fd5b50505050565b60048081111561039457fe5b600a60003373ffffffffffffffffffffffffffffffffffffffff1673ffffffffffffffffffffffffffffffffffffffff16815260200190815260200160002060009054906101000a900460ff1660048111156103ec57fe5b14156106ae57600460008773ffffffffffffffffffffffffffffffffffffffff1673ffffffffffffffffffffffffffffffffffffffff16815260200190815260200160002060030160149054906101000a900460ff16610481576040517f08c379a0000000000000000000000000000000000000000000000000000000008152600401610478906109fd565b60405180910390fd5b84600460008873ffffffffffffffffffffffffffffffffffffffff1673ffffffffffffffffffffffffffffffffffffffff168152602001908152602001600020600001819055508181600460008973ffffffffffffffffffffffffffffffffffffffff1673ffffffffffffffffffffffffffffffffffffffff16815260200190815260200160002060010191906105199291906106f1565b508383600460008973ffffffffffffffffffffffffffffffffffffffff1673ffffffffffffffffffffffffffffffffffffffff168152602001908152602001600020600201919061056b9291906106f1565b5085600460008873ffffffffffffffffffffffffffffffffffffffff1673ffffffffffffffffffffffffffffffffffffffff16815260200190815260200160002060030160006101000a81548173ffffffffffffffffffffffffffffffffffffffff021916908373ffffffffffffffffffffffffffffffffffffffff1602179055506001600460008873ffffffffffffffffffffffffffffffffffffffff1673ffffffffffffffffffffffffffffffffffffffff16815260200190815260200160002060030160146101000a81548160ff0219169083151502179055506002600560008873ffffffffffffffffffffffffffffffffffffffff1673ffffffffffffffffffffffffffffffffffffffff16815260200190815260200160002060006101000a81548160ff021916908360048111156106a457fe5b02179055506106e9565b6040517f08c379a00000000000000000000000000000000000000000000000000000000081526004016106e0906109dd565b60405180910390fd5b505050505050565b828054600181600116156101000203166002900490600052602060002090601f016020900481019282601f1061073257803560ff1916838001178555610760565b82800160010185558215610760579182015b8281111561075f578235825591602001919060010190610744565b5b50905061076d9190610771565b5090565b61079391905b8082111561078f576000816000905550600101610777565b5090565b90565b6000813590506107a581610a6a565b92915050565b60008083601f8401126107bd57600080fd5b8235905067ffffffffffffffff8111156107d657600080fd5b6020830191508360018202830111156107ee57600080fd5b9250929050565b60008135905061080481610a81565b92915050565b6000806000806060858703121561082057600080fd5b600061082e87828801610796565b945050602061083f878288016107f5565b935050604085013567ffffffffffffffff81111561085c57600080fd5b610868878288016107ab565b925092505092959194509250565b6000806000806000806080878903121561088f57600080fd5b600061089d89828a01610796565b96505060206108ae89828a016107f5565b955050604087013567ffffffffffffffff8111156108cb57600080fd5b6108d789828a016107ab565b9450945050606087013567ffffffffffffffff8111156108f657600080fd5b61090289828a016107ab565b92509250509295509295509295565b600061091e602d83610a1d565b91507f536f7272792c20746869732066756e6374696f6e20697320726573657276656460008301527f20746f207468652061646d696e000000000000000000000000000000000000006020830152604082019050919050565b6000610984602b83610a1d565b91507f54686973206164647265737320697320616c726561647920646566696e65642060008301527f6173206120646f63746f720000000000000000000000000000000000000000006020830152604082019050919050565b600060208201905081810360008301526109f681610911565b9050919050565b60006020820190508181036000830152610a1681610977565b9050919050565b600082825260208201905092915050565b6000610a3982610a40565b9050919050565b600073ffffffffffffffffffffffffffffffffffffffff82169050919050565b6000819050919050565b610a7381610a2e565b8114610a7e57600080fd5b50565b610a8a81610a60565b8114610a9557600080fd5b5056fea365627a7a723158206e698d3ef1b60632b3890721141ec9af6ccbbff60c78b86929662c07bb30ec296c6578706572696d656e74616cf564736f6c63430005100040",
  "source": "// SPDX-License-Identifier: MIT\npragma solidity >=0.4.22 <0.9.0;\npragma experimental ABIEncoderV2;\n\n/// @title Prescription made by the doctor after a consultation\ncontract Prescurity {\n    address internal owner;\n    struct Admin {\n        uint id;\n        address admin_address;\n        bool isValue;\n     }\n\n    struct Patient {\n        uint numero_secu;\n        address patient_address;\n        uint[] prescriptions_ids;\n        bool isValue;\n    }\n\n    struct Doctor {\n        uint id;\n        string speciality;\n        string name;\n        address doctor_address;\n        bool isValue;\n    }\n\n    struct Pharmacy {\n        uint id;\n        string name;\n        address pharmacy_address;\n        bool isValue;\n    }\n    \n    struct Prescription {\n        string frequency;\n        string start_timestamp;\n        string end_timestamp;\n        bool isValue;\n    } \n\n    constructor() public {\n        owner=msg.sender;\n    }\n\n\nenum authentification {\n        anon,\n        patient,\n        doctor,\n        pharmacy,\n        admin\n    }\n\n    mapping (uint => Patient) patient_num_secu_map;\n    mapping (address => authentification) patient_authentification;\n    mapping (uint => Doctor) doctor_id_map;\n    mapping (address => Doctor) doctor_address_map;\n    mapping (address => authentification) doctor_authentification;\n    mapping (uint => Pharmacy) pharma_id_map;\n    mapping (address => Pharmacy) pharmacy_address_map;\n    mapping (address => authentification) pharmacy_authentification;\n    mapping (uint => Prescription) presc_id_map;\n    mapping (address => authentification) admin_authentification;\n\n    modifier patient_only() {\n        if (patient_authentification[msg.sender] == authentification.patient) {\n            _;\n        } else {\n            revert(\"Sorry, this function is reserved to the patient\");\n        }\n    }\n\n modifier doctor_only() {\n        if (doctor_authentification[msg.sender] == authentification.doctor) {\n            _;\n        } else {\n            revert(\"Sorry, this function is reserved to the doctor\");\n        }\n    }\n    modifier pharmacy_only(){\n        if (pharmacy_authentification[msg.sender] == authentification.pharmacy) {\n            _;\n        } else {\n            revert(\"Sorry, this function is reserved to the pharmacy\");\n        }\n    }\n    modifier admin_only(){\n        if (admin_authentification[msg.sender] == authentification.admin) {\n            _;\n        } else {\n             revert(\"Sorry, this function is reserved to the admin\");\n         }\n     }\n\n     function add_doctor(address addr, uint id, string calldata name, string calldata speciality) external admin_only {\n         require(doctor_address_map[addr].isValue, \"This address is already defined as a doctor\");\n         doctor_address_map[addr].id = id;\n         doctor_address_map[addr].speciality = speciality;\n         doctor_address_map[addr].name = name;\n         doctor_address_map[addr].doctor_address = addr;\n         doctor_address_map[addr].isValue = true;\n         doctor_authentification[addr] = authentification.doctor;\n     }\n \n\n    function add_pharmacy(address addr, uint id, string calldata name) external admin_only {\n         require(pharmacy_address_map[addr].isValue, \"This address is already defined as a doctor\");\n         pharmacy_address_map[addr].id = id;\n         pharmacy_address_map[addr].name = name;\n         pharmacy_address_map[addr].pharmacy_address = addr;\n         pharmacy_address_map[addr].isValue = true;\n         pharmacy_authentification[addr] = authentification.pharmacy;\n     }\n\n\n     event Consultation(Patient patient, Doctor doctor, uint amount);\n\n\n\n\n\n\n\n}",
  "sourcePath": "/Users/yannraymond58/Prescurity/prescurity_blockchain/prescurity-blockchain/contracts/Prescurity.sol",
  "compiler": {
    "name": "solc",
    "version": "0.5.16+commit.9c3226ce.Emscripten.clang"
  },
  "schemaVersion": "3.3.3",
  "updatedAt": "2021-06-23T08:57:55.998Z",
  "devdoc": {
    "methods": {},
    "title": "Prescription made by the doctor after a consultation"
  },
  "userdoc": {
    "methods": {}
  }
}